{
  "contractName": "Merklable",
  "abi": [
    {
      "constant": true,
      "inputs": [],
      "name": "getRootHash",
      "outputs": [
        {
          "name": "",
          "type": "string"
        }
      ],
      "payable": false,
      "stateMutability": "view",
      "type": "function"
    },
    {
      "inputs": [
        {
          "name": "_rootHash",
          "type": "string"
        }
      ],
      "payable": false,
      "stateMutability": "nonpayable",
      "type": "constructor"
    }
  ],
  "bytecode": "0x6060604052341561000f57600080fd5b6040516102b83803806102b8833981016040528080518201919050508060009080519060200190610041929190610048565b50506100ed565b828054600181600116156101000203166002900490600052602060002090601f016020900481019282601f1061008957805160ff19168380011785556100b7565b828001600101855582156100b7579182015b828111156100b657825182559160200191906001019061009b565b5b5090506100c491906100c8565b5090565b6100ea91905b808211156100e65760008160009055506001016100ce565b5090565b90565b6101bc806100fc6000396000f300606060405260043610610041576000357c0100000000000000000000000000000000000000000000000000000000900463ffffffff16806380759f1f14610046575b600080fd5b341561005157600080fd5b6100596100d4565b6040518080602001828103825283818151815260200191508051906020019080838360005b8381101561009957808201518184015260208101905061007e565b50505050905090810190601f1680156100c65780820380516001836020036101000a031916815260200191505b509250505060405180910390f35b6100dc61017c565b60008054600181600116156101000203166002900480601f0160208091040260200160405190810160405280929190818152602001828054600181600116156101000203166002900480156101725780601f1061014757610100808354040283529160200191610172565b820191906000526020600020905b81548152906001019060200180831161015557829003601f168201915b5050505050905090565b6020604051908101604052806000815250905600a165627a7a72305820c33b30f9d7c5408abaa31daf4336691cedaa6d3800a0c4f55999165de0db85540029",
  "source": "pragma solidity ^0.4.4;\n\n\n/**\n * @title Merklable\n * @dev An object that can store its own rootHash based on a merkle tree calculation \n * that results in a 64 bit root hash size\n */\ncontract Merklable {\n\t/** \n\t* @dev The merkle tree root hash of this Merklable. Used for public verification of Merklable.\n\t* TODO this should probably not be string as it is more expensive to deal with strings compared\n\t* to fixed size byte arrays. But for now that's it.\n \t*/\n\tstring private rootHash;\n\n\tfunction Merklable (string _rootHash) public {\n\t\trootHash = _rootHash;\n\t}\n\n\tfunction getRootHash() public view returns(string) { \n\t\treturn rootHash; \n\t}\n\n}\n",
  "sourcePath": "/Users/pstehlik/coding/8383/cent-eth-demo-order/contracts/Merklable.sol",
  "compiler": {
    "name": "solc",
    "version": "0.4.18+commit.9cf6e910.Emscripten.clang"
  },
  "schemaVersion": "1.0.1",
  "updatedAt": "2017-11-08T09:52:49.382Z"
}