{
  "contractName": "Verifyable",
  "abi": [
    {
      "constant": true,
      "inputs": [
        {
          "name": "_verifier",
          "type": "address"
        }
      ],
      "name": "wasVerifiedBy",
      "outputs": [
        {
          "name": "wasVerified",
          "type": "bool"
        }
      ],
      "payable": false,
      "stateMutability": "view",
      "type": "function"
    },
    {
      "constant": false,
      "inputs": [],
      "name": "verify",
      "outputs": [],
      "payable": false,
      "stateMutability": "nonpayable",
      "type": "function"
    }
  ],
  "bytecode": "0x6060604052341561000f57600080fd5b6101a98061001e6000396000f30060606040526004361061004c576000357c0100000000000000000000000000000000000000000000000000000000900463ffffffff16806349696f9914610051578063fc735e99146100a2575b600080fd5b341561005c57600080fd5b610088600480803573ffffffffffffffffffffffffffffffffffffffff169060200190919050506100b7565b604051808215151515815260200191505060405180910390f35b34156100ad57600080fd5b6100b5610124565b005b6000600115156000808473ffffffffffffffffffffffffffffffffffffffff1673ffffffffffffffffffffffffffffffffffffffff16815260200190815260200160002060009054906101000a900460ff161515141561011a576001905061011f565b600090505b919050565b60016000803373ffffffffffffffffffffffffffffffffffffffff1673ffffffffffffffffffffffffffffffffffffffff16815260200190815260200160002060006101000a81548160ff0219169083151502179055505600a165627a7a7230582089c949a15e8cec964b3906979d8384cfbceb6e1db45745a8e3fd12c7ba5d1dc30029",
  "source": "pragma solidity ^0.4.4;\n\n/**\n * @title Verifyable\n * @dev Represents a transaction that can be verified by outside contracts or wallets.\n * Usually this would mean that an outside party \"verifies\" this specific contract by sending\n * a transaction to it, calling verify()\n */\ncontract Verifyable {\n\n\t/** \n\t* @dev Contracts or Wallets who claim to have verified this particular Verifyable\n\t*\n\t* TODO this should be able to contain a timestamp and timeout of the verification\n \t*/\n\tmapping(address => bool) private verifiedBy;\n\t\n\tfunction wasVerifiedBy(address _verifier) public view returns(bool wasVerified) { \n\t\tif ( verifiedBy[_verifier] == true ) {\n\t\t\treturn true;\n\t\t} else {\n\t\t\treturn false;\n\t\t}\n\t}\n\n\tfunction verify() public {\n\t\tverifiedBy[msg.sender] = true;\n\t}\n}\n",
  "sourcePath": "/Users/pstehlik/coding/8383/cent-eth-demo-order/contracts/Verifyable.sol",
  "compiler": {
    "name": "solc",
    "version": "0.4.18+commit.9cf6e910.Emscripten.clang"
  },
  "schemaVersion": "1.0.1",
  "updatedAt": "2017-11-08T09:52:49.383Z"
}